{
  "_format": "hh-sol-artifact-1",
  "contractName": "Exchange",
  "sourceName": "contracts/uniswapV1/exchange.sol",
  "abi": [
    {
      "inputs": [
        {
          "internalType": "address",
          "name": "_tokenAddresss",
          "type": "address"
        }
      ],
      "stateMutability": "nonpayable",
      "type": "constructor"
    },
    {
      "inputs": [
        {
          "internalType": "uint256",
          "name": "_tokenAmt",
          "type": "uint256"
        }
      ],
      "name": "addLiquidity",
      "outputs": [],
      "stateMutability": "payable",
      "type": "function"
    },
    {
      "inputs": [
        {
          "internalType": "uint256",
          "name": "_minTokens",
          "type": "uint256"
        }
      ],
      "name": "ethToTokenSwap",
      "outputs": [],
      "stateMutability": "payable",
      "type": "function"
    },
    {
      "inputs": [
        {
          "internalType": "uint256",
          "name": "_inputReserves",
          "type": "uint256"
        },
        {
          "internalType": "uint256",
          "name": "_outputReserves",
          "type": "uint256"
        }
      ],
      "name": "getPrice",
      "outputs": [
        {
          "internalType": "uint256",
          "name": "",
          "type": "uint256"
        }
      ],
      "stateMutability": "pure",
      "type": "function"
    },
    {
      "inputs": [
        {
          "internalType": "uint256",
          "name": "_tokenAmt",
          "type": "uint256"
        }
      ],
      "name": "toGetEthAmt",
      "outputs": [
        {
          "internalType": "uint256",
          "name": "",
          "type": "uint256"
        }
      ],
      "stateMutability": "view",
      "type": "function"
    },
    {
      "inputs": [
        {
          "internalType": "uint256",
          "name": "_ethSold",
          "type": "uint256"
        }
      ],
      "name": "toGetTokenAmt",
      "outputs": [
        {
          "internalType": "uint256",
          "name": "",
          "type": "uint256"
        }
      ],
      "stateMutability": "view",
      "type": "function"
    },
    {
      "inputs": [],
      "name": "tokenAddress",
      "outputs": [
        {
          "internalType": "address",
          "name": "",
          "type": "address"
        }
      ],
      "stateMutability": "view",
      "type": "function"
    },
    {
      "inputs": [],
      "name": "tokenBalance",
      "outputs": [
        {
          "internalType": "uint256",
          "name": "",
          "type": "uint256"
        }
      ],
      "stateMutability": "view",
      "type": "function"
    },
    {
      "inputs": [
        {
          "internalType": "uint256",
          "name": "_tokens",
          "type": "uint256"
        },
        {
          "internalType": "uint256",
          "name": "_minEth",
          "type": "uint256"
        }
      ],
      "name": "tokenToEthSwap",
      "outputs": [],
      "stateMutability": "nonpayable",
      "type": "function"
    }
  ],
  "bytecode": "0x60806040523480156200001157600080fd5b5060405162000fc438038062000fc4833981810160405281019062000037919062000108565b600073ffffffffffffffffffffffffffffffffffffffff168173ffffffffffffffffffffffffffffffffffffffff161415620000aa576040517f08c379a0000000000000000000000000000000000000000000000000000000008152600401620000a19062000161565b60405180910390fd5b806000806101000a81548173ffffffffffffffffffffffffffffffffffffffff021916908373ffffffffffffffffffffffffffffffffffffffff1602179055505062000210565b6000815190506200010281620001f6565b92915050565b600060208284031215620001215762000120620001c8565b5b60006200013184828501620000f1565b91505092915050565b60006200014960158362000183565b91506200015682620001cd565b602082019050919050565b600060208201905081810360008301526200017c816200013a565b9050919050565b600082825260208201905092915050565b6000620001a182620001a8565b9050919050565b600073ffffffffffffffffffffffffffffffffffffffff82169050919050565b600080fd5b7f696e76616c696420746f6b656e20616464726573730000000000000000000000600082015250565b620002018162000194565b81146200020d57600080fd5b50565b610da480620002206000396000f3fe60806040526004361061007b5760003560e01c80639d76ea581161004e5780639d76ea58146101535780639e1a4d191461017e578063e0486c8a146101a9578063f979dcd7146101d25761007b565b806351c6590a146100805780635c389a091461009c5780635cf4ee91146100d95780638692d04c14610116575b600080fd5b61009a60048036038101906100959190610805565b6101ee565b005b3480156100a857600080fd5b506100c360048036038101906100be9190610805565b6102a8565b6040516100d09190610a87565b60405180910390f35b3480156100e557600080fd5b5061010060048036038101906100fb919061085f565b61030b565b60405161010d9190610a87565b60405180910390f35b34801561012257600080fd5b5061013d60048036038101906101389190610805565b61036f565b60405161014a9190610a87565b60405180910390f35b34801561015f57600080fd5b506101686103d2565b604051610175919061096c565b60405180910390f35b34801561018a57600080fd5b506101936103f6565b6040516101a09190610a87565b60405180910390f35b3480156101b557600080fd5b506101d060048036038101906101cb919061085f565b6104a7565b005b6101ec60048036038101906101e79190610805565b610602565b005b60008060009054906101000a900473ffffffffffffffffffffffffffffffffffffffff1690508073ffffffffffffffffffffffffffffffffffffffff166323b872dd3330856040518463ffffffff1660e01b815260040161025193929190610987565b602060405180830381600087803b15801561026b57600080fd5b505af115801561027f573d6000803e3d6000fd5b505050506040513d601f19601f820116820180604052508101906102a391906107d8565b505050565b60008082116102ec576040517f08c379a00000000000000000000000000000000000000000000000000000000081526004016102e390610a47565b60405180910390fd5b60006102f66103f6565b905061030383824761071e565b915050919050565b6000808311801561031c5750600082115b61035b576040517f08c379a000000000000000000000000000000000000000000000000000000000815260040161035290610a67565b60405180910390fd5b81836103679190610b09565b905092915050565b60008082116103b3576040517f08c379a00000000000000000000000000000000000000000000000000000000081526004016103aa90610a07565b60405180910390fd5b60006103bd6103f6565b90506103ca83478361071e565b915050919050565b60008054906101000a900473ffffffffffffffffffffffffffffffffffffffff1681565b60008060009054906101000a900473ffffffffffffffffffffffffffffffffffffffff1673ffffffffffffffffffffffffffffffffffffffff166370a08231306040518263ffffffff1660e01b8152600401610452919061096c565b60206040518083038186803b15801561046a57600080fd5b505afa15801561047e573d6000803e3d6000fd5b505050506040513d601f19601f820116820180604052508101906104a29190610832565b905090565b60006104b16103f6565b905060006104c084834761071e565b905082811015610505576040517f08c379a00000000000000000000000000000000000000000000000000000000081526004016104fc90610a27565b60405180910390fd5b60008054906101000a900473ffffffffffffffffffffffffffffffffffffffff1673ffffffffffffffffffffffffffffffffffffffff166323b872dd3330876040518463ffffffff1660e01b815260040161056293929190610987565b602060405180830381600087803b15801561057c57600080fd5b505af1158015610590573d6000803e3d6000fd5b505050506040513d601f19601f820116820180604052508101906105b491906107d8565b503373ffffffffffffffffffffffffffffffffffffffff166108fc829081150290604051600060405180830381858888f193505050501580156105fb573d6000803e3d6000fd5b5050505050565b600061060c6103f6565b905060006106263434476106209190610b94565b8461071e565b90508281101561066b576040517f08c379a0000000000000000000000000000000000000000000000000000000008152600401610662906109e7565b60405180910390fd5b60008054906101000a900473ffffffffffffffffffffffffffffffffffffffff1673ffffffffffffffffffffffffffffffffffffffff1663a9059cbb33836040518363ffffffff1660e01b81526004016106c69291906109be565b602060405180830381600087803b1580156106e057600080fd5b505af11580156106f4573d6000803e3d6000fd5b505050506040513d601f19601f8201168201806040525081019061071891906107d8565b50505050565b6000808311801561072f5750600082115b61076e576040517f08c379a000000000000000000000000000000000000000000000000000000000815260040161076590610a67565b60405180910390fd5b828461077a9190610ab3565b84836107869190610b3a565b6107909190610b09565b90509392505050565b6000815190506107a881610d40565b92915050565b6000813590506107bd81610d57565b92915050565b6000815190506107d281610d57565b92915050565b6000602082840312156107ee576107ed610c6e565b5b60006107fc84828501610799565b91505092915050565b60006020828403121561081b5761081a610c6e565b5b6000610829848285016107ae565b91505092915050565b60006020828403121561084857610847610c6e565b5b6000610856848285016107c3565b91505092915050565b6000806040838503121561087657610875610c6e565b5b6000610884858286016107ae565b9250506020610895858286016107ae565b9150509250929050565b6108a881610bc8565b82525050565b60006108bb601383610aa2565b91506108c682610c73565b602082019050919050565b60006108de601b83610aa2565b91506108e982610c9c565b602082019050919050565b6000610901601083610aa2565b915061090c82610cc5565b602082019050919050565b6000610924601783610aa2565b915061092f82610cee565b602082019050919050565b6000610947601083610aa2565b915061095282610d17565b602082019050919050565b61096681610c06565b82525050565b6000602082019050610981600083018461089f565b92915050565b600060608201905061099c600083018661089f565b6109a9602083018561089f565b6109b6604083018461095d565b949350505050565b60006040820190506109d3600083018561089f565b6109e0602083018461095d565b9392505050565b60006020820190508181036000830152610a00816108ae565b9050919050565b60006020820190508181036000830152610a20816108d1565b9050919050565b60006020820190508181036000830152610a40816108f4565b9050919050565b60006020820190508181036000830152610a6081610917565b9050919050565b60006020820190508181036000830152610a808161093a565b9050919050565b6000602082019050610a9c600083018461095d565b92915050565b600082825260208201905092915050565b6000610abe82610c06565b9150610ac983610c06565b9250827fffffffffffffffffffffffffffffffffffffffffffffffffffffffffffffffff03821115610afe57610afd610c10565b5b828201905092915050565b6000610b1482610c06565b9150610b1f83610c06565b925082610b2f57610b2e610c3f565b5b828204905092915050565b6000610b4582610c06565b9150610b5083610c06565b9250817fffffffffffffffffffffffffffffffffffffffffffffffffffffffffffffffff0483118215151615610b8957610b88610c10565b5b828202905092915050565b6000610b9f82610c06565b9150610baa83610c06565b925082821015610bbd57610bbc610c10565b5b828203905092915050565b6000610bd382610be6565b9050919050565b60008115159050919050565b600073ffffffffffffffffffffffffffffffffffffffff82169050919050565b6000819050919050565b7f4e487b7100000000000000000000000000000000000000000000000000000000600052601160045260246000fd5b7f4e487b7100000000000000000000000000000000000000000000000000000000600052601260045260246000fd5b600080fd5b7f696e73756666696369656e7420746f6b656e7300000000000000000000000000600082015250565b7f657468536f6c6420697320746f6f20736d616c6c20616d6f756e740000000000600082015250565b7f696e73756666696369656e742065746800000000000000000000000000000000600082015250565b7f5f746f6b656e416d7420697320746f6f20736d616c6c20000000000000000000600082015250565b7f696e76616c696420726573657276657300000000000000000000000000000000600082015250565b610d4981610bda565b8114610d5457600080fd5b50565b610d6081610c06565b8114610d6b57600080fd5b5056fea264697066735822122083f3e2ef526afa4896784cd6e609418908d1770252345240490176a9c0b04c9364736f6c63430008070033",
  "linkReferences": {},
  "deployedLinkReferences": {}
}