{
  "_format": "hh-sol-artifact-1",
  "contractName": "RentalNFTMarketplace",
  "sourceName": "contracts/NFTMarketPlace/RentalNFTMarketplace.sol",
  "abi": [
    {
      "inputs": [],
      "stateMutability": "nonpayable",
      "type": "constructor"
    },
    {
      "inputs": [
        {
          "internalType": "address",
          "name": "_nft",
          "type": "address"
        },
        {
          "internalType": "uint256",
          "name": "_tokenId",
          "type": "uint256"
        },
        {
          "internalType": "uint256",
          "name": "_price",
          "type": "uint256"
        }
      ],
      "name": "registerSellers",
      "outputs": [],
      "stateMutability": "payable",
      "type": "function"
    }
  ],
  "bytecode": "0x608060405234801561001057600080fd5b50336000806101000a81548173ffffffffffffffffffffffffffffffffffffffff021916908373ffffffffffffffffffffffffffffffffffffffff160217905550610873806100606000396000f3fe60806040526004361061001e5760003560e01c8063019410c614610023575b600080fd5b61003d600480360381019061003891906104fe565b61003f565b005b828260008290503373ffffffffffffffffffffffffffffffffffffffff168173ffffffffffffffffffffffffffffffffffffffff16636352211e846040518263ffffffff1660e01b815260040161009691906106af565b60206040518083038186803b1580156100ae57600080fd5b505afa1580156100c2573d6000803e3d6000fd5b505050506040513d601f19601f820116820180604052508101906100e691906104d1565b73ffffffffffffffffffffffffffffffffffffffff161461013c576040517f08c379a00000000000000000000000000000000000000000000000000000000081526004016101339061062f565b60405180910390fd5b3073ffffffffffffffffffffffffffffffffffffffff168173ffffffffffffffffffffffffffffffffffffffff1663081812fc846040518263ffffffff1660e01b815260040161018c91906106af565b60206040518083038186803b1580156101a457600080fd5b505afa1580156101b8573d6000803e3d6000fd5b505050506040513d601f19601f820116820180604052508101906101dc91906104d1565b73ffffffffffffffffffffffffffffffffffffffff161415610233576040517f08c379a000000000000000000000000000000000000000000000000000000000815260040161022a9061068f565b60405180910390fd5b85856000600160008473ffffffffffffffffffffffffffffffffffffffff1673ffffffffffffffffffffffffffffffffffffffff168152602001908152602001600020600083815260200190815260200160002060010154116102cb576040517f08c379a00000000000000000000000000000000000000000000000000000000081526004016102c29061064f565b60405180910390fd5b3373ffffffffffffffffffffffffffffffffffffffff1660008054906101000a900473ffffffffffffffffffffffffffffffffffffffff1673ffffffffffffffffffffffffffffffffffffffff16141561035a576040517f08c379a00000000000000000000000000000000000000000000000000000000081526004016103519061060f565b60405180910390fd5b606434101561039e576040517f08c379a00000000000000000000000000000000000000000000000000000000081526004016103959061066f565b60405180910390fd5b85600160008a73ffffffffffffffffffffffffffffffffffffffff1673ffffffffffffffffffffffffffffffffffffffff16815260200190815260200160002060008981526020019081526020016000206001018190555033600160008a73ffffffffffffffffffffffffffffffffffffffff1673ffffffffffffffffffffffffffffffffffffffff168152602001908152602001600020600089815260200190815260200160002060000160006101000a81548173ffffffffffffffffffffffffffffffffffffffff021916908373ffffffffffffffffffffffffffffffffffffffff1602179055505050505050505050565b6000813590506104a18161080f565b92915050565b6000815190506104b68161080f565b92915050565b6000813590506104cb81610826565b92915050565b6000602082840312156104e7576104e6610717565b5b60006104f5848285016104a7565b91505092915050565b60008060006060848603121561051757610516610717565b5b600061052586828701610492565b9350506020610536868287016104bc565b9250506040610547868287016104bc565b9150509250925092565b600061055e6020836106ca565b91506105698261071c565b602082019050919050565b60006105816018836106ca565b915061058c82610745565b602082019050919050565b60006105a4600e836106ca565b91506105af8261076e565b602082019050919050565b60006105c76033836106ca565b91506105d282610797565b604082019050919050565b60006105ea6013836106ca565b91506105f5826107e6565b602082019050919050565b6106098161070d565b82525050565b6000602082019050818103600083015261062881610551565b9050919050565b6000602082019050818103600083015261064881610574565b9050919050565b6000602082019050818103600083015261066881610597565b9050919050565b60006020820190508181036000830152610688816105ba565b9050919050565b600060208201905081810360008301526106a8816105dd565b9050919050565b60006020820190506106c46000830184610600565b92915050565b600082825260208201905092915050565b60006106e6826106ed565b9050919050565b600073ffffffffffffffffffffffffffffffffffffffff82169050919050565b6000819050919050565b600080fd5b7f6f776e65722063616e2774207370616d20746865206d61726b6574706c616365600082015250565b7f6e6f7420746865206f776e6572206f6620746865206e66740000000000000000600082015250565b7f616c6561726479206c6973746564000000000000000000000000000000000000600082015250565b7f796f752073686f756c6420706179203130302077656920746f2072656769737460008201527f657220696e746f206d61726b6574706c61636500000000000000000000000000602082015250565b7f4e4654206973206e6f7420617070726f76656400000000000000000000000000600082015250565b610818816106db565b811461082357600080fd5b50565b61082f8161070d565b811461083a57600080fd5b5056fea26469706673582212203e5135f3255d6afc7847f824993927d0a83a0565559b452f5c0cbf61bdd8681164736f6c63430008070033",
  "linkReferences": {},
  "deployedLinkReferences": {}
}