{
  "_format": "hh-sol-artifact-1",
  "contractName": "storageSlot",
  "sourceName": "contracts/storageSlots.sol",
  "abi": [
    {
      "inputs": [
        {
          "internalType": "bytes32[3]",
          "name": "_data",
          "type": "bytes32[3]"
        }
      ],
      "stateMutability": "nonpayable",
      "type": "constructor"
    },
    {
      "inputs": [],
      "name": "a",
      "outputs": [
        {
          "internalType": "uint8",
          "name": "",
          "type": "uint8"
        }
      ],
      "stateMutability": "view",
      "type": "function"
    },
    {
      "inputs": [
        {
          "internalType": "uint256",
          "name": "",
          "type": "uint256"
        }
      ],
      "name": "arr",
      "outputs": [
        {
          "internalType": "uint256",
          "name": "",
          "type": "uint256"
        }
      ],
      "stateMutability": "view",
      "type": "function"
    },
    {
      "inputs": [],
      "name": "b",
      "outputs": [
        {
          "internalType": "uint8",
          "name": "",
          "type": "uint8"
        }
      ],
      "stateMutability": "view",
      "type": "function"
    },
    {
      "inputs": [],
      "name": "c",
      "outputs": [
        {
          "internalType": "uint16",
          "name": "",
          "type": "uint16"
        }
      ],
      "stateMutability": "view",
      "type": "function"
    },
    {
      "inputs": [],
      "name": "d",
      "outputs": [
        {
          "internalType": "uint256",
          "name": "",
          "type": "uint256"
        }
      ],
      "stateMutability": "view",
      "type": "function"
    },
    {
      "inputs": [
        {
          "internalType": "uint256",
          "name": "",
          "type": "uint256"
        }
      ],
      "name": "data",
      "outputs": [
        {
          "internalType": "bytes32",
          "name": "",
          "type": "bytes32"
        }
      ],
      "stateMutability": "view",
      "type": "function"
    },
    {
      "inputs": [
        {
          "internalType": "uint256",
          "name": "_elementIndex",
          "type": "uint256"
        }
      ],
      "name": "getElementIndexInStorage",
      "outputs": [
        {
          "internalType": "bytes32",
          "name": "",
          "type": "bytes32"
        }
      ],
      "stateMutability": "pure",
      "type": "function"
    },
    {
      "inputs": [],
      "name": "startingIndexOfValuesArrayElementsInStorage",
      "outputs": [
        {
          "internalType": "bytes32",
          "name": "",
          "type": "bytes32"
        }
      ],
      "stateMutability": "view",
      "type": "function"
    }
  ],
  "bytecode": "0x6080604052600a6000806101000a81548160ff021916908360ff1602179055506022600060016101000a81548160ff021916908360ff160217905550610d80600060026101000a81548161ffff021916908361ffff160217905550605a6001556001600260006101000a81548160ff0219169083151502179055506040518060a00160405280600560ff168152602001600460ff168152602001600360ff168152602001600260ff168152602001600160ff168152506006906005620000c792919062000116565b50348015620000d557600080fd5b50604051620008af380380620008af8339818101604052810190620000fb9190620002a9565b8060039060036200010e9291906200016d565b5050620003d6565b8280548282559060005260206000209081019282156200015a579160200282015b8281111562000159578251829060ff1690559160200191906001019062000137565b5b509050620001699190620001b2565b5090565b82600381019282156200019f579160200282015b828111156200019e57825182559160200191906001019062000181565b5b509050620001ae9190620001d1565b5090565b5b80821115620001cd576000816000905550600101620001b3565b5090565b5b80821115620001ec576000816000905550600101620001d2565b5090565b600062000207620002018462000304565b620002db565b90508082856020860282011115620002245762000223620003a1565b5b60005b858110156200025857816200023d888262000292565b84526020840193506020830192505060018101905062000227565b5050509392505050565b600082601f8301126200027a57620002796200039c565b5b600362000289848285620001f0565b91505092915050565b600081519050620002a381620003bc565b92915050565b600060608284031215620002c257620002c1620003a6565b5b6000620002d28482850162000262565b91505092915050565b6000620002e7620002fa565b9050620002f5828262000337565b919050565b6000604051905090565b600067ffffffffffffffff8211156200032257620003216200036d565b5b602082029050919050565b6000819050919050565b6200034282620003ab565b810181811067ffffffffffffffff821117156200036457620003636200036d565b5b80604052505050565b7f4e487b7100000000000000000000000000000000000000000000000000000000600052604160045260246000fd5b600080fd5b600080fd5b600080fd5b6000601f19601f8301169050919050565b620003c7816200032d565b8114620003d357600080fd5b50565b6104c980620003e66000396000f3fe608060405234801561001057600080fd5b50600436106100885760003560e01c80638a054ac21161005b5780638a054ac214610117578063b7e8afdc14610135578063c3da42b814610165578063f0ba84401461018357610088565b80630dbe671f1461008d5780634df7e3d0146100ab5780634efacbd5146100c957806371e5ee5f146100e7575b600080fd5b6100956101b3565b6040516100a29190610396565b60405180910390f35b6100b36101c4565b6040516100c09190610396565b60405180910390f35b6100d16101d7565b6040516100de919061032a565b60405180910390f35b61010160048036038101906100fc91906102b2565b610202565b60405161010e919061037b565b60405180910390f35b61011f610226565b60405161012c919061037b565b60405180910390f35b61014f600480360381019061014a91906102b2565b61022c565b60405161015c919061032a565b60405180910390f35b61016d61026e565b60405161017a9190610360565b60405180910390f35b61019d600480360381019061019891906102b2565b610282565b6040516101aa919061032a565b60405180910390f35b60008054906101000a900460ff1681565b600060019054906101000a900460ff1681565b60066040516020016101e99190610345565b6040516020818303038152906040528051906020012081565b6006818154811061021257600080fd5b906000526020600020016000915090505481565b60015481565b60008160066040516020016102419190610345565b6040516020818303038152906040528051906020012060001c61026491906103b1565b60001b9050919050565b600060029054906101000a900461ffff1681565b6003816003811061029257600080fd5b016000915090505481565b6000813590506102ac8161047c565b92915050565b6000602082840312156102c8576102c7610477565b5b60006102d68482850161029d565b91505092915050565b6102e881610407565b82525050565b6102f781610436565b82525050565b61030681610411565b82525050565b6103158161041f565b82525050565b61032481610429565b82525050565b600060208201905061033f60008301846102df565b92915050565b600060208201905061035a60008301846102ee565b92915050565b600060208201905061037560008301846102fd565b92915050565b6000602082019050610390600083018461030c565b92915050565b60006020820190506103ab600083018461031b565b92915050565b60006103bc8261041f565b91506103c78361041f565b9250827fffffffffffffffffffffffffffffffffffffffffffffffffffffffffffffffff038211156103fc576103fb610448565b5b828201905092915050565b6000819050919050565b600061ffff82169050919050565b6000819050919050565b600060ff82169050919050565b600061044182610429565b9050919050565b7f4e487b7100000000000000000000000000000000000000000000000000000000600052601160045260246000fd5b600080fd5b6104858161041f565b811461049057600080fd5b5056fea264697066735822122078d85ecd9fb26fac170ba675a307ec2e6bc8f699a346a3d852b3b5d72b47e4aa64736f6c63430008070033",
  "linkReferences": {},
  "deployedLinkReferences": {}
}