{
  "_format": "hh-sol-artifact-1",
  "contractName": "RegisterAndLogin",
  "sourceName": "contracts/Assignment/Register.sol",
  "abi": [
    {
      "anonymous": false,
      "inputs": [
        {
          "indexed": true,
          "internalType": "address",
          "name": "user",
          "type": "address"
        },
        {
          "indexed": true,
          "internalType": "bytes32",
          "name": "name",
          "type": "bytes32"
        }
      ],
      "name": "loginUser",
      "type": "event"
    },
    {
      "anonymous": false,
      "inputs": [
        {
          "indexed": true,
          "internalType": "address",
          "name": "user",
          "type": "address"
        }
      ],
      "name": "logoutUser",
      "type": "event"
    },
    {
      "anonymous": false,
      "inputs": [
        {
          "indexed": true,
          "internalType": "address",
          "name": "user",
          "type": "address"
        },
        {
          "indexed": true,
          "internalType": "bytes32",
          "name": "name",
          "type": "bytes32"
        }
      ],
      "name": "registeredUser",
      "type": "event"
    },
    {
      "inputs": [
        {
          "internalType": "bytes32",
          "name": "_name",
          "type": "bytes32"
        },
        {
          "internalType": "bytes32",
          "name": "_password",
          "type": "bytes32"
        }
      ],
      "name": "CheckUserToLogin",
      "outputs": [
        {
          "internalType": "bool",
          "name": "",
          "type": "bool"
        }
      ],
      "stateMutability": "nonpayable",
      "type": "function"
    },
    {
      "inputs": [],
      "name": "checkUserToLogOut",
      "outputs": [
        {
          "internalType": "bool",
          "name": "",
          "type": "bool"
        }
      ],
      "stateMutability": "nonpayable",
      "type": "function"
    },
    {
      "inputs": [
        {
          "internalType": "address",
          "name": "",
          "type": "address"
        }
      ],
      "name": "details",
      "outputs": [
        {
          "internalType": "bytes32",
          "name": "name",
          "type": "bytes32"
        },
        {
          "internalType": "bytes32",
          "name": "password",
          "type": "bytes32"
        },
        {
          "internalType": "bool",
          "name": "register",
          "type": "bool"
        },
        {
          "internalType": "bool",
          "name": "login",
          "type": "bool"
        }
      ],
      "stateMutability": "view",
      "type": "function"
    },
    {
      "inputs": [
        {
          "internalType": "bytes32",
          "name": "_userName",
          "type": "bytes32"
        },
        {
          "internalType": "bytes32",
          "name": "_newPassword",
          "type": "bytes32"
        }
      ],
      "name": "forgetPassword",
      "outputs": [
        {
          "internalType": "bool",
          "name": "",
          "type": "bool"
        }
      ],
      "stateMutability": "nonpayable",
      "type": "function"
    },
    {
      "inputs": [],
      "name": "printPassword",
      "outputs": [
        {
          "internalType": "bytes32",
          "name": "",
          "type": "bytes32"
        }
      ],
      "stateMutability": "view",
      "type": "function"
    },
    {
      "inputs": [],
      "name": "printUserName",
      "outputs": [
        {
          "internalType": "bytes32",
          "name": "",
          "type": "bytes32"
        }
      ],
      "stateMutability": "view",
      "type": "function"
    },
    {
      "inputs": [
        {
          "internalType": "bytes32",
          "name": "_name",
          "type": "bytes32"
        },
        {
          "internalType": "bytes32",
          "name": "_password",
          "type": "bytes32"
        }
      ],
      "name": "registerUser",
      "outputs": [],
      "stateMutability": "nonpayable",
      "type": "function"
    }
  ],
  "bytecode": "0x608060405234801561001057600080fd5b50610e94806100206000396000f3fe608060405234801561001057600080fd5b506004361061007d5760003560e01c80638c602f9d1161005b5780638c602f9d14610103578063957885351461012157806397274afb1461013d578063f4034fc01461016d5761007d565b80631d80e1461461008257806324a92f9f146100b25780633f22d317146100e5575b600080fd5b61009c60048036038101906100979190610a05565b61018b565b6040516100a99190610b58565b60405180910390f35b6100cc60048036038101906100c791906109d8565b6103d5565b6040516100dc9493929190610b8e565b60405180910390f35b6100ed61041f565b6040516100fa9190610b73565b60405180910390f35b61010b6104fd565b6040516101189190610b58565b60405180910390f35b61013b60048036038101906101369190610a05565b610638565b005b61015760048036038101906101529190610a05565b6107fb565b6040516101649190610b58565b60405180910390f35b6101756108d0565b6040516101829190610b73565b60405180910390f35b60008282600015156000803373ffffffffffffffffffffffffffffffffffffffff1673ffffffffffffffffffffffffffffffffffffffff16815260200190815260200160002060020160009054906101000a900460ff1615151415610225576040517f08c379a000000000000000000000000000000000000000000000000000000000815260040161021c90610bf3565b60405180910390fd5b816000803373ffffffffffffffffffffffffffffffffffffffff1673ffffffffffffffffffffffffffffffffffffffff16815260200190815260200160002060000154146102a8576040517f08c379a000000000000000000000000000000000000000000000000000000000815260040161029f90610bd3565b60405180910390fd5b806000803373ffffffffffffffffffffffffffffffffffffffff1673ffffffffffffffffffffffffffffffffffffffff168152602001908152602001600020600101541461032b576040517f08c379a000000000000000000000000000000000000000000000000000000000815260040161032290610c13565b60405180910390fd5b60016000803373ffffffffffffffffffffffffffffffffffffffff1673ffffffffffffffffffffffffffffffffffffffff16815260200190815260200160002060020160016101000a81548160ff021916908315150217905550843373ffffffffffffffffffffffffffffffffffffffff167ff7a049036a9d600e91c374a0e9462010d2f855d7e5e84d9e40edf1e3759d1a4d60405160405180910390a360019250505092915050565b60006020528060005260406000206000915090508060000154908060010154908060020160009054906101000a900460ff16908060020160019054906101000a900460ff16905084565b6000600115156000803373ffffffffffffffffffffffffffffffffffffffff1673ffffffffffffffffffffffffffffffffffffffff16815260200190815260200160002060020160019054906101000a900460ff161515146104b6576040517f08c379a00000000000000000000000000000000000000000000000000000000081526004016104ad90610c33565b60405180910390fd5b6000803373ffffffffffffffffffffffffffffffffffffffff1673ffffffffffffffffffffffffffffffffffffffff16815260200190815260200160002060010154905090565b6000600115156000803373ffffffffffffffffffffffffffffffffffffffff1673ffffffffffffffffffffffffffffffffffffffff16815260200190815260200160002060020160019054906101000a900460ff16151514610594576040517f08c379a000000000000000000000000000000000000000000000000000000000815260040161058b90610c93565b60405180910390fd5b60008060003373ffffffffffffffffffffffffffffffffffffffff1673ffffffffffffffffffffffffffffffffffffffff16815260200190815260200160002060020160016101000a81548160ff0219169083151502179055503373ffffffffffffffffffffffffffffffffffffffff167f09df5060147ba7bee63b5093499c70e6f315fc8e0e51789ee1534dc6736b5b2360405160405180910390a26001905090565b600015156000803373ffffffffffffffffffffffffffffffffffffffff1673ffffffffffffffffffffffffffffffffffffffff16815260200190815260200160002060020160009054906101000a900460ff161515146106cd576040517f08c379a00000000000000000000000000000000000000000000000000000000081526004016106c490610c53565b60405180910390fd5b816000803373ffffffffffffffffffffffffffffffffffffffff1673ffffffffffffffffffffffffffffffffffffffff16815260200190815260200160002060000181905550806000803373ffffffffffffffffffffffffffffffffffffffff1673ffffffffffffffffffffffffffffffffffffffff1681526020019081526020016000206001018190555060016000803373ffffffffffffffffffffffffffffffffffffffff1673ffffffffffffffffffffffffffffffffffffffff16815260200190815260200160002060020160006101000a81548160ff021916908315150217905550813373ffffffffffffffffffffffffffffffffffffffff167fb9e8aaca23221f0f433366d0de07f60e68d67c781b201df31c806aab5e70b86d60405160405180910390a35050565b6000826000803373ffffffffffffffffffffffffffffffffffffffff1673ffffffffffffffffffffffffffffffffffffffff1681526020019081526020016000206000015414610880576040517f08c379a000000000000000000000000000000000000000000000000000000000815260040161087790610c73565b60405180910390fd5b816000803373ffffffffffffffffffffffffffffffffffffffff1673ffffffffffffffffffffffffffffffffffffffff168152602001908152602001600020600101819055506001905092915050565b6000600115156000803373ffffffffffffffffffffffffffffffffffffffff1673ffffffffffffffffffffffffffffffffffffffff16815260200190815260200160002060020160019054906101000a900460ff16151514610967576040517f08c379a000000000000000000000000000000000000000000000000000000000815260040161095e90610c33565b60405180910390fd5b6000803373ffffffffffffffffffffffffffffffffffffffff1673ffffffffffffffffffffffffffffffffffffffff16815260200190815260200160002060000154905090565b6000813590506109bd81610e30565b92915050565b6000813590506109d281610e47565b92915050565b6000602082840312156109ee576109ed610d0c565b5b60006109fc848285016109ae565b91505092915050565b60008060408385031215610a1c57610a1b610d0c565b5b6000610a2a858286016109c3565b9250506020610a3b858286016109c3565b9150509250929050565b610a4e81610cd6565b82525050565b610a5d81610ce2565b82525050565b6000610a70602083610cb3565b9150610a7b82610d11565b602082019050919050565b6000610a93600e83610cb3565b9150610a9e82610d3a565b602082019050919050565b6000610ab6601b83610cb3565b9150610ac182610d63565b602082019050919050565b6000610ad9600d83610cb3565b9150610ae482610d8c565b602082019050919050565b6000610afc600c83610cb3565b9150610b0782610db5565b602082019050919050565b6000610b1f602083610cb3565b9150610b2a82610dde565b602082019050919050565b6000610b42601583610cb3565b9150610b4d82610e07565b602082019050919050565b6000602082019050610b6d6000830184610a45565b92915050565b6000602082019050610b886000830184610a54565b92915050565b6000608082019050610ba36000830187610a54565b610bb06020830186610a54565b610bbd6040830185610a45565b610bca6060830184610a45565b95945050505050565b60006020820190508181036000830152610bec81610a63565b9050919050565b60006020820190508181036000830152610c0c81610a86565b9050919050565b60006020820190508181036000830152610c2c81610aa9565b9050919050565b60006020820190508181036000830152610c4c81610acc565b9050919050565b60006020820190508181036000830152610c6c81610aef565b9050919050565b60006020820190508181036000830152610c8c81610b12565b9050919050565b60006020820190508181036000830152610cac81610b35565b9050919050565b600082825260208201905092915050565b6000610ccf82610cec565b9050919050565b60008115159050919050565b6000819050919050565b600073ffffffffffffffffffffffffffffffffffffffff82169050919050565b600080fd5b7f75736572206e6f7420657869737465642e20637265617465204163636f756e74600082015250565b7f7265676973746572206669727374000000000000000000000000000000000000600082015250565b7f496e63636f72726563742070617373776f726420656e74657265640000000000600082015250565b7f796f752063616e74207669657700000000000000000000000000000000000000600082015250565b7f616c656172647920757365720000000000000000000000000000000000000000600082015250565b7f796f7520617265206e6f7420746865206f776e6572206f66206163636f756e74600082015250565b7f4c6f67696e20666972737420746f204c6f676f75740000000000000000000000600082015250565b610e3981610cc4565b8114610e4457600080fd5b50565b610e5081610ce2565b8114610e5b57600080fd5b5056fea264697066735822122068e3757b20ccc6b145b597326232e48dfd7e76239ab5cf89532dc792efb6272364736f6c63430008070033",
  "linkReferences": {},
  "deployedLinkReferences": {}
}