{
  "_format": "hh-sol-artifact-1",
  "contractName": "A",
  "sourceName": "contracts/NFTMarketPlace/storage.sol",
  "abi": [
    {
      "inputs": [
        {
          "internalType": "uint256",
          "name": "value",
          "type": "uint256"
        }
      ],
      "name": "addElements",
      "outputs": [],
      "stateMutability": "nonpayable",
      "type": "function"
    },
    {
      "inputs": [],
      "name": "hello",
      "outputs": [],
      "stateMutability": "nonpayable",
      "type": "function"
    }
  ],
  "bytecode": "0x6080604052600a600055601460015534801561001a57600080fd5b506101198061002a6000396000f3fe6080604052348015600f57600080fd5b506004361060325760003560e01c806319ff1d211460375780636bf4419514603f575b600080fd5b603d6057565b005b60556004803603810190605191906098565b6059565b005b565b600281908060018154018082558091505060019003906000526020600020016000909190919091505550565b60008135905060928160cf565b92915050565b60006020828403121560ab5760aa60ca565b5b600060b7848285016085565b91505092915050565b6000819050919050565b600080fd5b60d68160c0565b811460e057600080fd5b5056fea26469706673582212209ff152b05350fc26749aaf3b9109e48154f2beaea448f1e30549723a590de8c864736f6c63430008070033",
  "linkReferences": {},
  "deployedLinkReferences": {}
}