{
  "_format": "hh-sol-artifact-1",
  "contractName": "WhiteList",
  "sourceName": "contracts/WhiteList.sol",
  "abi": [
    {
      "inputs": [
        {
          "internalType": "uint256",
          "name": "_maxCount",
          "type": "uint256"
        }
      ],
      "stateMutability": "nonpayable",
      "type": "constructor"
    },
    {
      "inputs": [],
      "name": "addToWhiteList",
      "outputs": [],
      "stateMutability": "nonpayable",
      "type": "function"
    },
    {
      "inputs": [
        {
          "internalType": "address",
          "name": "",
          "type": "address"
        }
      ],
      "name": "members",
      "outputs": [
        {
          "internalType": "bool",
          "name": "",
          "type": "bool"
        }
      ],
      "stateMutability": "view",
      "type": "function"
    },
    {
      "inputs": [],
      "name": "owner",
      "outputs": [
        {
          "internalType": "address",
          "name": "",
          "type": "address"
        }
      ],
      "stateMutability": "view",
      "type": "function"
    },
    {
      "inputs": [
        {
          "internalType": "uint256",
          "name": "_ls",
          "type": "uint256"
        },
        {
          "internalType": "uint256",
          "name": "_le",
          "type": "uint256"
        }
      ],
      "name": "startWhitelisting",
      "outputs": [],
      "stateMutability": "nonpayable",
      "type": "function"
    }
  ],
  "bytecode": "0x6080604052600060015534801561001557600080fd5b5060405161090a38038061090a8339818101604052810190610037919061009a565b33600560006101000a81548173ffffffffffffffffffffffffffffffffffffffff021916908373ffffffffffffffffffffffffffffffffffffffff16021790555080600081905550506100ed565b600081519050610094816100d6565b92915050565b6000602082840312156100b0576100af6100d1565b5b60006100be84828501610085565b91505092915050565b6000819050919050565b600080fd5b6100df816100c7565b81146100ea57600080fd5b50565b61080e806100fc6000396000f3fe608060405234801561001057600080fd5b506004361061004c5760003560e01c806308ae4b0c146100515780633b18214d146100815780638da5cb5b1461009d578063c059cc73146100bb575b600080fd5b61006b600480360381019061006691906103c4565b6100c5565b6040516100789190610519565b60405180910390f35b61009b600480360381019061009691906103f1565b6100e5565b005b6100a561019f565b6040516100b291906104fe565b60405180910390f35b6100c36101c5565b005b60026020528060005260406000206000915054906101000a900460ff1681565b600560009054906101000a900473ffffffffffffffffffffffffffffffffffffffff1673ffffffffffffffffffffffffffffffffffffffff163373ffffffffffffffffffffffffffffffffffffffff1614610175576040517f08c379a000000000000000000000000000000000000000000000000000000000815260040161016c906105b4565b60405180910390fd5b428261018191906105e5565b6003819055508060035461019591906105e5565b6004819055505050565b600560009054906101000a900473ffffffffffffffffffffffffffffffffffffffff1681565b42600354111561020a576040517f08c379a000000000000000000000000000000000000000000000000000000000815260040161020190610594565b60405180910390fd5b600454421061024e576040517f08c379a000000000000000000000000000000000000000000000000000000000815260040161024590610554565b60405180910390fd5b60005460015410610294576040517f08c379a000000000000000000000000000000000000000000000000000000000815260040161028b90610534565b60405180910390fd5b60001515600260003373ffffffffffffffffffffffffffffffffffffffff1673ffffffffffffffffffffffffffffffffffffffff16815260200190815260200160002060009054906101000a900460ff16151514610327576040517f08c379a000000000000000000000000000000000000000000000000000000000815260040161031e90610574565b60405180910390fd5b6001600260003373ffffffffffffffffffffffffffffffffffffffff1673ffffffffffffffffffffffffffffffffffffffff16815260200190815260200160002060006101000a81548160ff021916908315150217905550600180600082825461039191906105e5565b92505081905550565b6000813590506103a9816107aa565b92915050565b6000813590506103be816107c1565b92915050565b6000602082840312156103da576103d96106b2565b5b60006103e88482850161039a565b91505092915050565b60008060408385031215610408576104076106b2565b5b6000610416858286016103af565b9250506020610427858286016103af565b9150509250929050565b61043a8161063b565b82525050565b6104498161064d565b82525050565b600061045c6016836105d4565b9150610467826106b7565b602082019050919050565b600061047f6015836105d4565b915061048a826106e0565b602082019050919050565b60006104a26016836105d4565b91506104ad82610709565b602082019050919050565b60006104c5601b836105d4565b91506104d082610732565b602082019050919050565b60006104e8602c836105d4565b91506104f38261075b565b604082019050919050565b60006020820190506105136000830184610431565b92915050565b600060208201905061052e6000830184610440565b92915050565b6000602082019050818103600083015261054d8161044f565b9050919050565b6000602082019050818103600083015261056d81610472565b9050919050565b6000602082019050818103600083015261058d81610495565b9050919050565b600060208201905081810360008301526105ad816104b8565b9050919050565b600060208201905081810360008301526105cd816104db565b9050919050565b600082825260208201905092915050565b60006105f082610679565b91506105fb83610679565b9250827fffffffffffffffffffffffffffffffffffffffffffffffffffffffffffffffff038211156106305761062f610683565b5b828201905092915050565b600061064682610659565b9050919050565b60008115159050919050565b600073ffffffffffffffffffffffffffffffffffffffff82169050919050565b6000819050919050565b7f4e487b7100000000000000000000000000000000000000000000000000000000600052601160045260246000fd5b600080fd5b7f77686974654c697374696e672069732066756c6c656400000000000000000000600082015250565b7f77686974654c697374696e6720697320656e6465640000000000000000000000600082015250565b7f757220616c65617264792077686974656c697374656400000000000000000000600082015250565b7f77686974656c697374696e67206973206e6f7420737461727465640000000000600082015250565b7f752063616e277420737461727420746865206c697374696e672c2062636f7a2060008201527f7572206e6f74206f776e65720000000000000000000000000000000000000000602082015250565b6107b38161063b565b81146107be57600080fd5b50565b6107ca81610679565b81146107d557600080fd5b5056fea2646970667358221220a9d0a4651edde0240bc4c572eaa572bbb342dbd0eda0850a244bc22dd429b02164736f6c63430008070033",
  "linkReferences": {},
  "deployedLinkReferences": {}
}