{
  "_format": "hh-sol-artifact-1",
  "contractName": "SwappingTokens",
  "sourceName": "contracts/SwappingContract.sol",
  "abi": [
    {
      "inputs": [],
      "stateMutability": "nonpayable",
      "type": "constructor"
    },
    {
      "anonymous": false,
      "inputs": [
        {
          "indexed": true,
          "internalType": "address",
          "name": "owner",
          "type": "address"
        },
        {
          "indexed": true,
          "internalType": "address",
          "name": "spender",
          "type": "address"
        },
        {
          "indexed": false,
          "internalType": "uint256",
          "name": "value",
          "type": "uint256"
        }
      ],
      "name": "Approval",
      "type": "event"
    },
    {
      "anonymous": false,
      "inputs": [
        {
          "indexed": true,
          "internalType": "address",
          "name": "from",
          "type": "address"
        },
        {
          "indexed": true,
          "internalType": "address",
          "name": "to",
          "type": "address"
        },
        {
          "indexed": false,
          "internalType": "uint256",
          "name": "value",
          "type": "uint256"
        }
      ],
      "name": "Transfer",
      "type": "event"
    },
    {
      "inputs": [
        {
          "internalType": "address",
          "name": "owner",
          "type": "address"
        },
        {
          "internalType": "address",
          "name": "spender",
          "type": "address"
        }
      ],
      "name": "allowance",
      "outputs": [
        {
          "internalType": "uint256",
          "name": "",
          "type": "uint256"
        }
      ],
      "stateMutability": "view",
      "type": "function"
    },
    {
      "inputs": [
        {
          "internalType": "address",
          "name": "spender",
          "type": "address"
        },
        {
          "internalType": "uint256",
          "name": "amount",
          "type": "uint256"
        }
      ],
      "name": "approve",
      "outputs": [
        {
          "internalType": "bool",
          "name": "",
          "type": "bool"
        }
      ],
      "stateMutability": "nonpayable",
      "type": "function"
    },
    {
      "inputs": [
        {
          "internalType": "address",
          "name": "account",
          "type": "address"
        }
      ],
      "name": "balanceOf",
      "outputs": [
        {
          "internalType": "uint256",
          "name": "",
          "type": "uint256"
        }
      ],
      "stateMutability": "view",
      "type": "function"
    },
    {
      "inputs": [],
      "name": "carTokenPrice",
      "outputs": [
        {
          "internalType": "uint256",
          "name": "",
          "type": "uint256"
        }
      ],
      "stateMutability": "view",
      "type": "function"
    },
    {
      "inputs": [],
      "name": "decimals",
      "outputs": [
        {
          "internalType": "uint8",
          "name": "",
          "type": "uint8"
        }
      ],
      "stateMutability": "view",
      "type": "function"
    },
    {
      "inputs": [
        {
          "internalType": "address",
          "name": "spender",
          "type": "address"
        },
        {
          "internalType": "uint256",
          "name": "subtractedValue",
          "type": "uint256"
        }
      ],
      "name": "decreaseAllowance",
      "outputs": [
        {
          "internalType": "bool",
          "name": "",
          "type": "bool"
        }
      ],
      "stateMutability": "nonpayable",
      "type": "function"
    },
    {
      "inputs": [],
      "name": "getCarPrice",
      "outputs": [
        {
          "internalType": "uint256",
          "name": "price_",
          "type": "uint256"
        }
      ],
      "stateMutability": "view",
      "type": "function"
    },
    {
      "inputs": [
        {
          "internalType": "address",
          "name": "spender",
          "type": "address"
        },
        {
          "internalType": "uint256",
          "name": "addedValue",
          "type": "uint256"
        }
      ],
      "name": "increaseAllowance",
      "outputs": [
        {
          "internalType": "bool",
          "name": "",
          "type": "bool"
        }
      ],
      "stateMutability": "nonpayable",
      "type": "function"
    },
    {
      "inputs": [],
      "name": "name",
      "outputs": [
        {
          "internalType": "string",
          "name": "",
          "type": "string"
        }
      ],
      "stateMutability": "view",
      "type": "function"
    },
    {
      "inputs": [],
      "name": "owner",
      "outputs": [
        {
          "internalType": "address",
          "name": "",
          "type": "address"
        }
      ],
      "stateMutability": "view",
      "type": "function"
    },
    {
      "inputs": [
        {
          "internalType": "uint256",
          "name": "_price",
          "type": "uint256"
        }
      ],
      "name": "setCarPrice",
      "outputs": [],
      "stateMutability": "nonpayable",
      "type": "function"
    },
    {
      "inputs": [
        {
          "internalType": "address",
          "name": "_token",
          "type": "address"
        },
        {
          "internalType": "uint256",
          "name": "amount",
          "type": "uint256"
        }
      ],
      "name": "swap",
      "outputs": [],
      "stateMutability": "nonpayable",
      "type": "function"
    },
    {
      "inputs": [],
      "name": "symbol",
      "outputs": [
        {
          "internalType": "string",
          "name": "",
          "type": "string"
        }
      ],
      "stateMutability": "view",
      "type": "function"
    },
    {
      "inputs": [],
      "name": "totalSupply",
      "outputs": [
        {
          "internalType": "uint256",
          "name": "",
          "type": "uint256"
        }
      ],
      "stateMutability": "view",
      "type": "function"
    },
    {
      "inputs": [
        {
          "internalType": "address",
          "name": "to",
          "type": "address"
        },
        {
          "internalType": "uint256",
          "name": "amount",
          "type": "uint256"
        }
      ],
      "name": "transfer",
      "outputs": [
        {
          "internalType": "bool",
          "name": "",
          "type": "bool"
        }
      ],
      "stateMutability": "nonpayable",
      "type": "function"
    },
    {
      "inputs": [
        {
          "internalType": "address",
          "name": "from",
          "type": "address"
        },
        {
          "internalType": "address",
          "name": "to",
          "type": "address"
        },
        {
          "internalType": "uint256",
          "name": "amount",
          "type": "uint256"
        }
      ],
      "name": "transferFrom",
      "outputs": [
        {
          "internalType": "bool",
          "name": "",
          "type": "bool"
        }
      ],
      "stateMutability": "nonpayable",
      "type": "function"
    },
    {
      "inputs": [
        {
          "internalType": "address",
          "name": "_token",
          "type": "address"
        },
        {
          "internalType": "uint256",
          "name": "amount",
          "type": "uint256"
        }
      ],
      "name": "unSwap",
      "outputs": [],
      "stateMutability": "nonpayable",
      "type": "function"
    }
  ],
  "bytecode": "0x60806040523480156200001157600080fd5b506040518060400160405280600381526020017f43415200000000000000000000000000000000000000000000000000000000008152506040518060400160405280600281526020017f435200000000000000000000000000000000000000000000000000000000000081525081600390805190602001906200009692919062000101565b508060049080519060200190620000af92919062000101565b505050600160058190555033600660006101000a81548173ffffffffffffffffffffffffffffffffffffffff021916908373ffffffffffffffffffffffffffffffffffffffff16021790555062000216565b8280546200010f90620001b1565b90600052602060002090601f0160209004810192826200013357600085556200017f565b82601f106200014e57805160ff19168380011785556200017f565b828001600101855582156200017f579182015b828111156200017e57825182559160200191906001019062000161565b5b5090506200018e919062000192565b5090565b5b80821115620001ad57600081600090555060010162000193565b5090565b60006002820490506001821680620001ca57607f821691505b60208210811415620001e157620001e0620001e7565b5b50919050565b7f4e487b7100000000000000000000000000000000000000000000000000000000600052602260045260246000fd5b611f9a80620002266000396000f3fe608060405234801561001057600080fd5b506004361061010b5760003560e01c806370a08231116100a2578063a545121911610071578063a5451219146102d2578063a9059cbb146102ee578063d004f0f71461031e578063dd5aaf551461033a578063dd62ed3e146103565761010b565b806370a08231146102365780638da5cb5b1461026657806395d89b4114610284578063a457c2d7146102a25761010b565b8063313ce567116100de578063313ce567146101ac57806331de3449146101ca57806339509351146101e85780635f644da9146102185761010b565b806306fdde0314610110578063095ea7b31461012e57806318160ddd1461015e57806323b872dd1461017c575b600080fd5b610118610386565b604051610125919061170b565b60405180910390f35b6101486004803603810190610143919061137c565b610418565b60405161015591906116f0565b60405180910390f35b61016661043b565b60405161017391906118ed565b60405180910390f35b61019660048036038101906101919190611329565b610445565b6040516101a391906116f0565b60405180910390f35b6101b4610474565b6040516101c19190611908565b60405180910390f35b6101d261047d565b6040516101df91906118ed565b60405180910390f35b61020260048036038101906101fd919061137c565b610483565b60405161020f91906116f0565b60405180910390f35b6102206104ba565b60405161022d91906118ed565b60405180910390f35b610250600480360381019061024b91906112bc565b6104c4565b60405161025d91906118ed565b60405180910390f35b61026e61050c565b60405161027b9190611675565b60405180910390f35b61028c610532565b604051610299919061170b565b60405180910390f35b6102bc60048036038101906102b7919061137c565b6105c4565b6040516102c991906116f0565b60405180910390f35b6102ec60048036038101906102e7919061137c565b61063b565b005b6103086004803603810190610303919061137c565b610765565b60405161031591906116f0565b60405180910390f35b6103386004803603810190610333919061137c565b610788565b005b610354600480360381019061034f91906113e9565b6108f8565b005b610370600480360381019061036b91906112e9565b6109d5565b60405161037d91906118ed565b60405180910390f35b60606003805461039590611adc565b80601f01602080910402602001604051908101604052809291908181526020018280546103c190611adc565b801561040e5780601f106103e35761010080835404028352916020019161040e565b820191906000526020600020905b8154815290600101906020018083116103f157829003601f168201915b5050505050905090565b600080610423610a5c565b9050610430818585610a64565b600191505092915050565b6000600254905090565b600080610450610a5c565b905061045d858285610c2f565b610468858585610cbb565b60019150509392505050565b60006012905090565b60055481565b60008061048e610a5c565b90506104af8185856104a085896109d5565b6104aa919061193f565b610a64565b600191505092915050565b6000600554905090565b60008060008373ffffffffffffffffffffffffffffffffffffffff1673ffffffffffffffffffffffffffffffffffffffff168152602001908152602001600020549050919050565b600660009054906101000a900473ffffffffffffffffffffffffffffffffffffffff1681565b60606004805461054190611adc565b80601f016020809104026020016040519081016040528092919081815260200182805461056d90611adc565b80156105ba5780601f1061058f576101008083540402835291602001916105ba565b820191906000526020600020905b81548152906001019060200180831161059d57829003601f168201915b5050505050905090565b6000806105cf610a5c565b905060006105dd82866109d5565b905083811015610622576040517f08c379a00000000000000000000000000000000000000000000000000000000081526004016106199061188d565b60405180910390fd5b61062f8286868403610a64565b60019250505092915050565b600073ffffffffffffffffffffffffffffffffffffffff168273ffffffffffffffffffffffffffffffffffffffff1614156106ab576040517f08c379a00000000000000000000000000000000000000000000000000000000081526004016106a2906118ad565b60405180910390fd5b60006106b56104ba565b9050600081836106c591906119c6565b90508373ffffffffffffffffffffffffffffffffffffffff1663a9059cbb33836040518363ffffffff1660e01b81526004016107029291906116c7565b602060405180830381600087803b15801561071c57600080fd5b505af1158015610730573d6000803e3d6000fd5b505050506040513d601f19601f8201168201806040525081019061075491906113bc565b5061075f3084610f3c565b50505050565b600080610770610a5c565b905061077d818585610cbb565b600191505092915050565b600073ffffffffffffffffffffffffffffffffffffffff168273ffffffffffffffffffffffffffffffffffffffff1614156107f8576040517f08c379a00000000000000000000000000000000000000000000000000000000081526004016107ef906118ad565b60405180910390fd5b60006108026104ba565b9050600081836108129190611995565b905061081e3382611113565b60008473ffffffffffffffffffffffffffffffffffffffff166323b872dd3330876040518463ffffffff1660e01b815260040161085d93929190611690565b602060405180830381600087803b15801561087757600080fd5b505af115801561088b573d6000803e3d6000fd5b505050506040513d601f19601f820116820180604052508101906108af91906113bc565b9050806108f1576040517f08c379a00000000000000000000000000000000000000000000000000000000081526004016108e8906117ed565b60405180910390fd5b5050505050565b600660009054906101000a900473ffffffffffffffffffffffffffffffffffffffff1673ffffffffffffffffffffffffffffffffffffffff163373ffffffffffffffffffffffffffffffffffffffff1614610988576040517f08c379a000000000000000000000000000000000000000000000000000000000815260040161097f906117cd565b60405180910390fd5b600181116109cb576040517f08c379a00000000000000000000000000000000000000000000000000000000081526004016109c29061186d565b60405180910390fd5b8060058190555050565b6000600160008473ffffffffffffffffffffffffffffffffffffffff1673ffffffffffffffffffffffffffffffffffffffff16815260200190815260200160002060008373ffffffffffffffffffffffffffffffffffffffff1673ffffffffffffffffffffffffffffffffffffffff16815260200190815260200160002054905092915050565b600033905090565b600073ffffffffffffffffffffffffffffffffffffffff168373ffffffffffffffffffffffffffffffffffffffff161415610ad4576040517f08c379a0000000000000000000000000000000000000000000000000000000008152600401610acb9061184d565b60405180910390fd5b600073ffffffffffffffffffffffffffffffffffffffff168273ffffffffffffffffffffffffffffffffffffffff161415610b44576040517f08c379a0000000000000000000000000000000000000000000000000000000008152600401610b3b9061176d565b60405180910390fd5b80600160008573ffffffffffffffffffffffffffffffffffffffff1673ffffffffffffffffffffffffffffffffffffffff16815260200190815260200160002060008473ffffffffffffffffffffffffffffffffffffffff1673ffffffffffffffffffffffffffffffffffffffff168152602001908152602001600020819055508173ffffffffffffffffffffffffffffffffffffffff168373ffffffffffffffffffffffffffffffffffffffff167f8c5be1e5ebec7d5bd14f71427d1e84f3dd0314c0f7b2291e5b200ac8c7c3b92583604051610c2291906118ed565b60405180910390a3505050565b6000610c3b84846109d5565b90507fffffffffffffffffffffffffffffffffffffffffffffffffffffffffffffffff8114610cb55781811015610ca7576040517f08c379a0000000000000000000000000000000000000000000000000000000008152600401610c9e9061178d565b60405180910390fd5b610cb48484848403610a64565b5b50505050565b600073ffffffffffffffffffffffffffffffffffffffff168373ffffffffffffffffffffffffffffffffffffffff161415610d2b576040517f08c379a0000000000000000000000000000000000000000000000000000000008152600401610d229061182d565b60405180910390fd5b600073ffffffffffffffffffffffffffffffffffffffff168273ffffffffffffffffffffffffffffffffffffffff161415610d9b576040517f08c379a0000000000000000000000000000000000000000000000000000000008152600401610d929061172d565b60405180910390fd5b610da6838383611273565b60008060008573ffffffffffffffffffffffffffffffffffffffff1673ffffffffffffffffffffffffffffffffffffffff16815260200190815260200160002054905081811015610e2c576040517f08c379a0000000000000000000000000000000000000000000000000000000008152600401610e23906117ad565b60405180910390fd5b8181036000808673ffffffffffffffffffffffffffffffffffffffff1673ffffffffffffffffffffffffffffffffffffffff16815260200190815260200160002081905550816000808573ffffffffffffffffffffffffffffffffffffffff1673ffffffffffffffffffffffffffffffffffffffff1681526020019081526020016000206000828254610ebf919061193f565b925050819055508273ffffffffffffffffffffffffffffffffffffffff168473ffffffffffffffffffffffffffffffffffffffff167fddf252ad1be2c89b69c2b068fc378daa952ba7f163c4a11628f55a4df523b3ef84604051610f2391906118ed565b60405180910390a3610f36848484611278565b50505050565b600073ffffffffffffffffffffffffffffffffffffffff168273ffffffffffffffffffffffffffffffffffffffff161415610fac576040517f08c379a0000000000000000000000000000000000000000000000000000000008152600401610fa39061180d565b60405180910390fd5b610fb882600083611273565b60008060008473ffffffffffffffffffffffffffffffffffffffff1673ffffffffffffffffffffffffffffffffffffffff1681526020019081526020016000205490508181101561103e576040517f08c379a00000000000000000000000000000000000000000000000000000000081526004016110359061174d565b60405180910390fd5b8181036000808573ffffffffffffffffffffffffffffffffffffffff1673ffffffffffffffffffffffffffffffffffffffff1681526020019081526020016000208190555081600260008282546110959190611a20565b92505081905550600073ffffffffffffffffffffffffffffffffffffffff168373ffffffffffffffffffffffffffffffffffffffff167fddf252ad1be2c89b69c2b068fc378daa952ba7f163c4a11628f55a4df523b3ef846040516110fa91906118ed565b60405180910390a361110e83600084611278565b505050565b600073ffffffffffffffffffffffffffffffffffffffff168273ffffffffffffffffffffffffffffffffffffffff161415611183576040517f08c379a000000000000000000000000000000000000000000000000000000000815260040161117a906118cd565b60405180910390fd5b61118f60008383611273565b80600260008282546111a1919061193f565b92505081905550806000808473ffffffffffffffffffffffffffffffffffffffff1673ffffffffffffffffffffffffffffffffffffffff16815260200190815260200160002060008282546111f6919061193f565b925050819055508173ffffffffffffffffffffffffffffffffffffffff16600073ffffffffffffffffffffffffffffffffffffffff167fddf252ad1be2c89b69c2b068fc378daa952ba7f163c4a11628f55a4df523b3ef8360405161125b91906118ed565b60405180910390a361126f60008383611278565b5050565b505050565b505050565b60008135905061128c81611f1f565b92915050565b6000815190506112a181611f36565b92915050565b6000813590506112b681611f4d565b92915050565b6000602082840312156112d2576112d1611b9b565b5b60006112e08482850161127d565b91505092915050565b60008060408385031215611300576112ff611b9b565b5b600061130e8582860161127d565b925050602061131f8582860161127d565b9150509250929050565b60008060006060848603121561134257611341611b9b565b5b60006113508682870161127d565b93505060206113618682870161127d565b9250506040611372868287016112a7565b9150509250925092565b6000806040838503121561139357611392611b9b565b5b60006113a18582860161127d565b92505060206113b2858286016112a7565b9150509250929050565b6000602082840312156113d2576113d1611b9b565b5b60006113e084828501611292565b91505092915050565b6000602082840312156113ff576113fe611b9b565b5b600061140d848285016112a7565b91505092915050565b61141f81611a54565b82525050565b61142e81611a66565b82525050565b600061143f82611923565b611449818561192e565b9350611459818560208601611aa9565b61146281611ba0565b840191505092915050565b600061147a60238361192e565b915061148582611bb1565b604082019050919050565b600061149d60228361192e565b91506114a882611c00565b604082019050919050565b60006114c060228361192e565b91506114cb82611c4f565b604082019050919050565b60006114e3601d8361192e565b91506114ee82611c9e565b602082019050919050565b600061150660268361192e565b915061151182611cc7565b604082019050919050565b600061152960158361192e565b915061153482611d16565b602082019050919050565b600061154c60138361192e565b915061155782611d3f565b602082019050919050565b600061156f60218361192e565b915061157a82611d68565b604082019050919050565b600061159260258361192e565b915061159d82611db7565b604082019050919050565b60006115b560248361192e565b91506115c082611e06565b604082019050919050565b60006115d8600f8361192e565b91506115e382611e55565b602082019050919050565b60006115fb60258361192e565b915061160682611e7e565b604082019050919050565b600061161e60168361192e565b915061162982611ecd565b602082019050919050565b6000611641601f8361192e565b915061164c82611ef6565b602082019050919050565b61166081611a92565b82525050565b61166f81611a9c565b82525050565b600060208201905061168a6000830184611416565b92915050565b60006060820190506116a56000830186611416565b6116b26020830185611416565b6116bf6040830184611657565b949350505050565b60006040820190506116dc6000830185611416565b6116e96020830184611657565b9392505050565b60006020820190506117056000830184611425565b92915050565b600060208201905081810360008301526117258184611434565b905092915050565b600060208201905081810360008301526117468161146d565b9050919050565b6000602082019050818103600083015261176681611490565b9050919050565b60006020820190508181036000830152611786816114b3565b9050919050565b600060208201905081810360008301526117a6816114d6565b9050919050565b600060208201905081810360008301526117c6816114f9565b9050919050565b600060208201905081810360008301526117e68161151c565b9050919050565b600060208201905081810360008301526118068161153f565b9050919050565b6000602082019050818103600083015261182681611562565b9050919050565b6000602082019050818103600083015261184681611585565b9050919050565b60006020820190508181036000830152611866816115a8565b9050919050565b60006020820190508181036000830152611886816115cb565b9050919050565b600060208201905081810360008301526118a6816115ee565b9050919050565b600060208201905081810360008301526118c681611611565b9050919050565b600060208201905081810360008301526118e681611634565b9050919050565b60006020820190506119026000830184611657565b92915050565b600060208201905061191d6000830184611666565b92915050565b600081519050919050565b600082825260208201905092915050565b600061194a82611a92565b915061195583611a92565b9250827fffffffffffffffffffffffffffffffffffffffffffffffffffffffffffffffff0382111561198a57611989611b0e565b5b828201905092915050565b60006119a082611a92565b91506119ab83611a92565b9250826119bb576119ba611b3d565b5b828204905092915050565b60006119d182611a92565b91506119dc83611a92565b9250817fffffffffffffffffffffffffffffffffffffffffffffffffffffffffffffffff0483118215151615611a1557611a14611b0e565b5b828202905092915050565b6000611a2b82611a92565b9150611a3683611a92565b925082821015611a4957611a48611b0e565b5b828203905092915050565b6000611a5f82611a72565b9050919050565b60008115159050919050565b600073ffffffffffffffffffffffffffffffffffffffff82169050919050565b6000819050919050565b600060ff82169050919050565b60005b83811015611ac7578082015181840152602081019050611aac565b83811115611ad6576000848401525b50505050565b60006002820490506001821680611af457607f821691505b60208210811415611b0857611b07611b6c565b5b50919050565b7f4e487b7100000000000000000000000000000000000000000000000000000000600052601160045260246000fd5b7f4e487b7100000000000000000000000000000000000000000000000000000000600052601260045260246000fd5b7f4e487b7100000000000000000000000000000000000000000000000000000000600052602260045260246000fd5b600080fd5b6000601f19601f8301169050919050565b7f45524332303a207472616e7366657220746f20746865207a65726f206164647260008201527f6573730000000000000000000000000000000000000000000000000000000000602082015250565b7f45524332303a206275726e20616d6f756e7420657863656564732062616c616e60008201527f6365000000000000000000000000000000000000000000000000000000000000602082015250565b7f45524332303a20617070726f766520746f20746865207a65726f20616464726560008201527f7373000000000000000000000000000000000000000000000000000000000000602082015250565b7f45524332303a20696e73756666696369656e7420616c6c6f77616e6365000000600082015250565b7f45524332303a207472616e7366657220616d6f756e742065786365656473206260008201527f616c616e63650000000000000000000000000000000000000000000000000000602082015250565b7f796f7520617265206e6f7420746865206f776e65720000000000000000000000600082015250565b7f7472616e7366657246726f6d206661696c656400000000000000000000000000600082015250565b7f45524332303a206275726e2066726f6d20746865207a65726f2061646472657360008201527f7300000000000000000000000000000000000000000000000000000000000000602082015250565b7f45524332303a207472616e736665722066726f6d20746865207a65726f20616460008201527f6472657373000000000000000000000000000000000000000000000000000000602082015250565b7f45524332303a20617070726f76652066726f6d20746865207a65726f2061646460008201527f7265737300000000000000000000000000000000000000000000000000000000602082015250565b7f636865636b207468652070726963650000000000000000000000000000000000600082015250565b7f45524332303a2064656372656173656420616c6c6f77616e63652062656c6f7760008201527f207a65726f000000000000000000000000000000000000000000000000000000602082015250565b7f696e76616c696420746f6b656e20616464726573737300000000000000000000600082015250565b7f45524332303a206d696e7420746f20746865207a65726f206164647265737300600082015250565b611f2881611a54565b8114611f3357600080fd5b50565b611f3f81611a66565b8114611f4a57600080fd5b50565b611f5681611a92565b8114611f6157600080fd5b5056fea2646970667358221220a5153582cc7352ffea9cee6073464405b7f529077ae0872cb021927ca7d807b164736f6c63430008070033",
  "linkReferences": {},
  "deployedLinkReferences": {}
}