{
  "_format": "hh-sol-artifact-1",
  "contractName": "SwappingTokens",
  "sourceName": "contracts/SwappingContract.sol",
  "abi": [
    {
      "inputs": [],
      "stateMutability": "nonpayable",
      "type": "constructor"
    },
    {
      "anonymous": false,
      "inputs": [
        {
          "indexed": true,
          "internalType": "address",
          "name": "owner",
          "type": "address"
        },
        {
          "indexed": true,
          "internalType": "address",
          "name": "spender",
          "type": "address"
        },
        {
          "indexed": false,
          "internalType": "uint256",
          "name": "value",
          "type": "uint256"
        }
      ],
      "name": "Approval",
      "type": "event"
    },
    {
      "anonymous": false,
      "inputs": [
        {
          "indexed": true,
          "internalType": "address",
          "name": "from",
          "type": "address"
        },
        {
          "indexed": true,
          "internalType": "address",
          "name": "to",
          "type": "address"
        },
        {
          "indexed": false,
          "internalType": "uint256",
          "name": "value",
          "type": "uint256"
        }
      ],
      "name": "Transfer",
      "type": "event"
    },
    {
      "inputs": [
        {
          "internalType": "address",
          "name": "owner",
          "type": "address"
        },
        {
          "internalType": "address",
          "name": "spender",
          "type": "address"
        }
      ],
      "name": "allowance",
      "outputs": [
        {
          "internalType": "uint256",
          "name": "",
          "type": "uint256"
        }
      ],
      "stateMutability": "view",
      "type": "function"
    },
    {
      "inputs": [
        {
          "internalType": "address",
          "name": "spender",
          "type": "address"
        },
        {
          "internalType": "uint256",
          "name": "amount",
          "type": "uint256"
        }
      ],
      "name": "approve",
      "outputs": [
        {
          "internalType": "bool",
          "name": "",
          "type": "bool"
        }
      ],
      "stateMutability": "nonpayable",
      "type": "function"
    },
    {
      "inputs": [
        {
          "internalType": "address",
          "name": "account",
          "type": "address"
        }
      ],
      "name": "balanceOf",
      "outputs": [
        {
          "internalType": "uint256",
          "name": "",
          "type": "uint256"
        }
      ],
      "stateMutability": "view",
      "type": "function"
    },
    {
      "inputs": [],
      "name": "carTokenPrice",
      "outputs": [
        {
          "internalType": "uint256",
          "name": "",
          "type": "uint256"
        }
      ],
      "stateMutability": "view",
      "type": "function"
    },
    {
      "inputs": [],
      "name": "decimals",
      "outputs": [
        {
          "internalType": "uint8",
          "name": "",
          "type": "uint8"
        }
      ],
      "stateMutability": "view",
      "type": "function"
    },
    {
      "inputs": [
        {
          "internalType": "address",
          "name": "spender",
          "type": "address"
        },
        {
          "internalType": "uint256",
          "name": "subtractedValue",
          "type": "uint256"
        }
      ],
      "name": "decreaseAllowance",
      "outputs": [
        {
          "internalType": "bool",
          "name": "",
          "type": "bool"
        }
      ],
      "stateMutability": "nonpayable",
      "type": "function"
    },
    {
      "inputs": [],
      "name": "getCarPrice",
      "outputs": [
        {
          "internalType": "uint256",
          "name": "price_",
          "type": "uint256"
        }
      ],
      "stateMutability": "view",
      "type": "function"
    },
    {
      "inputs": [
        {
          "internalType": "address",
          "name": "spender",
          "type": "address"
        },
        {
          "internalType": "uint256",
          "name": "addedValue",
          "type": "uint256"
        }
      ],
      "name": "increaseAllowance",
      "outputs": [
        {
          "internalType": "bool",
          "name": "",
          "type": "bool"
        }
      ],
      "stateMutability": "nonpayable",
      "type": "function"
    },
    {
      "inputs": [],
      "name": "name",
      "outputs": [
        {
          "internalType": "string",
          "name": "",
          "type": "string"
        }
      ],
      "stateMutability": "view",
      "type": "function"
    },
    {
      "inputs": [],
      "name": "owner",
      "outputs": [
        {
          "internalType": "address",
          "name": "",
          "type": "address"
        }
      ],
      "stateMutability": "view",
      "type": "function"
    },
    {
      "inputs": [
        {
          "internalType": "uint256",
          "name": "_price",
          "type": "uint256"
        }
      ],
      "name": "setCarPrice",
      "outputs": [],
      "stateMutability": "nonpayable",
      "type": "function"
    },
    {
      "inputs": [
        {
          "internalType": "address",
          "name": "_token",
          "type": "address"
        },
        {
          "internalType": "uint256",
          "name": "amount",
          "type": "uint256"
        }
      ],
      "name": "swap",
      "outputs": [],
      "stateMutability": "nonpayable",
      "type": "function"
    },
    {
      "inputs": [],
      "name": "symbol",
      "outputs": [
        {
          "internalType": "string",
          "name": "",
          "type": "string"
        }
      ],
      "stateMutability": "view",
      "type": "function"
    },
    {
      "inputs": [],
      "name": "totalSupply",
      "outputs": [
        {
          "internalType": "uint256",
          "name": "",
          "type": "uint256"
        }
      ],
      "stateMutability": "view",
      "type": "function"
    },
    {
      "inputs": [
        {
          "internalType": "address",
          "name": "to",
          "type": "address"
        },
        {
          "internalType": "uint256",
          "name": "amount",
          "type": "uint256"
        }
      ],
      "name": "transfer",
      "outputs": [
        {
          "internalType": "bool",
          "name": "",
          "type": "bool"
        }
      ],
      "stateMutability": "nonpayable",
      "type": "function"
    },
    {
      "inputs": [
        {
          "internalType": "address",
          "name": "from",
          "type": "address"
        },
        {
          "internalType": "address",
          "name": "to",
          "type": "address"
        },
        {
          "internalType": "uint256",
          "name": "amount",
          "type": "uint256"
        }
      ],
      "name": "transferFrom",
      "outputs": [
        {
          "internalType": "bool",
          "name": "",
          "type": "bool"
        }
      ],
      "stateMutability": "nonpayable",
      "type": "function"
    },
    {
      "inputs": [
        {
          "internalType": "address",
          "name": "_token",
          "type": "address"
        },
        {
          "internalType": "uint256",
          "name": "amount",
          "type": "uint256"
        }
      ],
      "name": "unSwap",
      "outputs": [],
      "stateMutability": "nonpayable",
      "type": "function"
    }
  ],
  "bytecode": "0x60806040523480156200001157600080fd5b506040518060400160405280600381526020017f43415200000000000000000000000000000000000000000000000000000000008152506040518060400160405280600281526020017f435200000000000000000000000000000000000000000000000000000000000081525081600390805190602001906200009692919062000101565b508060049080519060200190620000af92919062000101565b505050600160058190555033600660006101000a81548173ffffffffffffffffffffffffffffffffffffffff021916908373ffffffffffffffffffffffffffffffffffffffff16021790555062000216565b8280546200010f90620001b1565b90600052602060002090601f0160209004810192826200013357600085556200017f565b82601f106200014e57805160ff19168380011785556200017f565b828001600101855582156200017f579182015b828111156200017e57825182559160200191906001019062000161565b5b5090506200018e919062000192565b5090565b5b80821115620001ad57600081600090555060010162000193565b5090565b60006002820490506001821680620001ca57607f821691505b60208210811415620001e157620001e0620001e7565b5b50919050565b7f4e487b7100000000000000000000000000000000000000000000000000000000600052602260045260246000fd5b6121f680620002266000396000f3fe608060405234801561001057600080fd5b506004361061010b5760003560e01c806370a08231116100a2578063a545121911610071578063a5451219146102d2578063a9059cbb146102ee578063d004f0f71461031e578063dd5aaf551461033a578063dd62ed3e146103565761010b565b806370a08231146102365780638da5cb5b1461026657806395d89b4114610284578063a457c2d7146102a25761010b565b8063313ce567116100de578063313ce567146101ac57806331de3449146101ca57806339509351146101e85780635f644da9146102185761010b565b806306fdde0314610110578063095ea7b31461012e57806318160ddd1461015e57806323b872dd1461017c575b600080fd5b610118610386565b60405161012591906118af565b60405180910390f35b610148600480360381019061014391906114ad565b610418565b6040516101559190611894565b60405180910390f35b61016661043b565b6040516101739190611ad1565b60405180910390f35b6101966004803603810190610191919061145a565b610445565b6040516101a39190611894565b60405180910390f35b6101b4610474565b6040516101c19190611aec565b60405180910390f35b6101d261047d565b6040516101df9190611ad1565b60405180910390f35b61020260048036038101906101fd91906114ad565b610483565b60405161020f9190611894565b60405180910390f35b6102206104ba565b60405161022d9190611ad1565b60405180910390f35b610250600480360381019061024b91906113ed565b6104c4565b60405161025d9190611ad1565b60405180910390f35b61026e61050c565b60405161027b9190611819565b60405180910390f35b61028c610532565b60405161029991906118af565b60405180910390f35b6102bc60048036038101906102b791906114ad565b6105c4565b6040516102c99190611894565b60405180910390f35b6102ec60048036038101906102e791906114ad565b61063b565b005b610308600480360381019061030391906114ad565b610881565b6040516103159190611894565b60405180910390f35b610338600480360381019061033391906114ad565b6108a4565b005b610354600480360381019061034f919061151a565b610a14565b005b610370600480360381019061036b919061141a565b610af1565b60405161037d9190611ad1565b60405180910390f35b60606003805461039590611cc0565b80601f01602080910402602001604051908101604052809291908181526020018280546103c190611cc0565b801561040e5780601f106103e35761010080835404028352916020019161040e565b820191906000526020600020905b8154815290600101906020018083116103f157829003601f168201915b5050505050905090565b600080610423610b78565b9050610430818585610b80565b600191505092915050565b6000600254905090565b600080610450610b78565b905061045d858285610d4b565b610468858585610dd7565b60019150509392505050565b60006012905090565b60055481565b60008061048e610b78565b90506104af8185856104a08589610af1565b6104aa9190611b23565b610b80565b600191505092915050565b6000600554905090565b60008060008373ffffffffffffffffffffffffffffffffffffffff1673ffffffffffffffffffffffffffffffffffffffff168152602001908152602001600020549050919050565b600660009054906101000a900473ffffffffffffffffffffffffffffffffffffffff1681565b60606004805461054190611cc0565b80601f016020809104026020016040519081016040528092919081815260200182805461056d90611cc0565b80156105ba5780601f1061058f576101008083540402835291602001916105ba565b820191906000526020600020905b81548152906001019060200180831161059d57829003601f168201915b5050505050905090565b6000806105cf610b78565b905060006105dd8286610af1565b905083811015610622576040517f08c379a000000000000000000000000000000000000000000000000000000000815260040161061990611a71565b60405180910390fd5b61062f8286868403610b80565b60019250505092915050565b600073ffffffffffffffffffffffffffffffffffffffff168273ffffffffffffffffffffffffffffffffffffffff1614156106ab576040517f08c379a00000000000000000000000000000000000000000000000000000000081526004016106a290611a91565b60405180910390fd5b6106b4336104c4565b8111156106f6576040517f08c379a00000000000000000000000000000000000000000000000000000000081526004016106ed90611a51565b60405180910390fd5b60006107006104ba565b9050600081836107109190611baa565b905060008473ffffffffffffffffffffffffffffffffffffffff166370a08231306040518263ffffffff1660e01b815260040161074d9190611819565b60206040518083038186803b15801561076557600080fd5b505afa158015610779573d6000803e3d6000fd5b505050506040513d601f19601f8201168201806040525081019061079d9190611547565b9050808211156107e2576040517f08c379a00000000000000000000000000000000000000000000000000000000081526004016107d990611971565b60405180910390fd5b8473ffffffffffffffffffffffffffffffffffffffff1663a9059cbb33846040518363ffffffff1660e01b815260040161081d92919061186b565b602060405180830381600087803b15801561083757600080fd5b505af115801561084b573d6000803e3d6000fd5b505050506040513d601f19601f8201168201806040525081019061086f91906114ed565b5061087a3385611058565b5050505050565b60008061088c610b78565b9050610899818585610dd7565b600191505092915050565b600073ffffffffffffffffffffffffffffffffffffffff168273ffffffffffffffffffffffffffffffffffffffff161415610914576040517f08c379a000000000000000000000000000000000000000000000000000000000815260040161090b90611a91565b60405180910390fd5b600061091e6104ba565b90506000818361092e9190611b79565b905061093a338261122f565b60008473ffffffffffffffffffffffffffffffffffffffff166323b872dd3330876040518463ffffffff1660e01b815260040161097993929190611834565b602060405180830381600087803b15801561099357600080fd5b505af11580156109a7573d6000803e3d6000fd5b505050506040513d601f19601f820116820180604052508101906109cb91906114ed565b905080610a0d576040517f08c379a0000000000000000000000000000000000000000000000000000000008152600401610a04906119b1565b60405180910390fd5b5050505050565b600660009054906101000a900473ffffffffffffffffffffffffffffffffffffffff1673ffffffffffffffffffffffffffffffffffffffff163373ffffffffffffffffffffffffffffffffffffffff1614610aa4576040517f08c379a0000000000000000000000000000000000000000000000000000000008152600401610a9b90611991565b60405180910390fd5b60018111610ae7576040517f08c379a0000000000000000000000000000000000000000000000000000000008152600401610ade90611a31565b60405180910390fd5b8060058190555050565b6000600160008473ffffffffffffffffffffffffffffffffffffffff1673ffffffffffffffffffffffffffffffffffffffff16815260200190815260200160002060008373ffffffffffffffffffffffffffffffffffffffff1673ffffffffffffffffffffffffffffffffffffffff16815260200190815260200160002054905092915050565b600033905090565b600073ffffffffffffffffffffffffffffffffffffffff168373ffffffffffffffffffffffffffffffffffffffff161415610bf0576040517f08c379a0000000000000000000000000000000000000000000000000000000008152600401610be790611a11565b60405180910390fd5b600073ffffffffffffffffffffffffffffffffffffffff168273ffffffffffffffffffffffffffffffffffffffff161415610c60576040517f08c379a0000000000000000000000000000000000000000000000000000000008152600401610c5790611911565b60405180910390fd5b80600160008573ffffffffffffffffffffffffffffffffffffffff1673ffffffffffffffffffffffffffffffffffffffff16815260200190815260200160002060008473ffffffffffffffffffffffffffffffffffffffff1673ffffffffffffffffffffffffffffffffffffffff168152602001908152602001600020819055508173ffffffffffffffffffffffffffffffffffffffff168373ffffffffffffffffffffffffffffffffffffffff167f8c5be1e5ebec7d5bd14f71427d1e84f3dd0314c0f7b2291e5b200ac8c7c3b92583604051610d3e9190611ad1565b60405180910390a3505050565b6000610d578484610af1565b90507fffffffffffffffffffffffffffffffffffffffffffffffffffffffffffffffff8114610dd15781811015610dc3576040517f08c379a0000000000000000000000000000000000000000000000000000000008152600401610dba90611931565b60405180910390fd5b610dd08484848403610b80565b5b50505050565b600073ffffffffffffffffffffffffffffffffffffffff168373ffffffffffffffffffffffffffffffffffffffff161415610e47576040517f08c379a0000000000000000000000000000000000000000000000000000000008152600401610e3e906119f1565b60405180910390fd5b600073ffffffffffffffffffffffffffffffffffffffff168273ffffffffffffffffffffffffffffffffffffffff161415610eb7576040517f08c379a0000000000000000000000000000000000000000000000000000000008152600401610eae906118d1565b60405180910390fd5b610ec283838361138f565b60008060008573ffffffffffffffffffffffffffffffffffffffff1673ffffffffffffffffffffffffffffffffffffffff16815260200190815260200160002054905081811015610f48576040517f08c379a0000000000000000000000000000000000000000000000000000000008152600401610f3f90611951565b60405180910390fd5b8181036000808673ffffffffffffffffffffffffffffffffffffffff1673ffffffffffffffffffffffffffffffffffffffff16815260200190815260200160002081905550816000808573ffffffffffffffffffffffffffffffffffffffff1673ffffffffffffffffffffffffffffffffffffffff1681526020019081526020016000206000828254610fdb9190611b23565b925050819055508273ffffffffffffffffffffffffffffffffffffffff168473ffffffffffffffffffffffffffffffffffffffff167fddf252ad1be2c89b69c2b068fc378daa952ba7f163c4a11628f55a4df523b3ef8460405161103f9190611ad1565b60405180910390a3611052848484611394565b50505050565b600073ffffffffffffffffffffffffffffffffffffffff168273ffffffffffffffffffffffffffffffffffffffff1614156110c8576040517f08c379a00000000000000000000000000000000000000000000000000000000081526004016110bf906119d1565b60405180910390fd5b6110d48260008361138f565b60008060008473ffffffffffffffffffffffffffffffffffffffff1673ffffffffffffffffffffffffffffffffffffffff1681526020019081526020016000205490508181101561115a576040517f08c379a0000000000000000000000000000000000000000000000000000000008152600401611151906118f1565b60405180910390fd5b8181036000808573ffffffffffffffffffffffffffffffffffffffff1673ffffffffffffffffffffffffffffffffffffffff1681526020019081526020016000208190555081600260008282546111b19190611c04565b92505081905550600073ffffffffffffffffffffffffffffffffffffffff168373ffffffffffffffffffffffffffffffffffffffff167fddf252ad1be2c89b69c2b068fc378daa952ba7f163c4a11628f55a4df523b3ef846040516112169190611ad1565b60405180910390a361122a83600084611394565b505050565b600073ffffffffffffffffffffffffffffffffffffffff168273ffffffffffffffffffffffffffffffffffffffff16141561129f576040517f08c379a000000000000000000000000000000000000000000000000000000000815260040161129690611ab1565b60405180910390fd5b6112ab6000838361138f565b80600260008282546112bd9190611b23565b92505081905550806000808473ffffffffffffffffffffffffffffffffffffffff1673ffffffffffffffffffffffffffffffffffffffff16815260200190815260200160002060008282546113129190611b23565b925050819055508173ffffffffffffffffffffffffffffffffffffffff16600073ffffffffffffffffffffffffffffffffffffffff167fddf252ad1be2c89b69c2b068fc378daa952ba7f163c4a11628f55a4df523b3ef836040516113779190611ad1565b60405180910390a361138b60008383611394565b5050565b505050565b505050565b6000813590506113a88161217b565b92915050565b6000815190506113bd81612192565b92915050565b6000813590506113d2816121a9565b92915050565b6000815190506113e7816121a9565b92915050565b60006020828403121561140357611402611d7f565b5b600061141184828501611399565b91505092915050565b6000806040838503121561143157611430611d7f565b5b600061143f85828601611399565b925050602061145085828601611399565b9150509250929050565b60008060006060848603121561147357611472611d7f565b5b600061148186828701611399565b935050602061149286828701611399565b92505060406114a3868287016113c3565b9150509250925092565b600080604083850312156114c4576114c3611d7f565b5b60006114d285828601611399565b92505060206114e3858286016113c3565b9150509250929050565b60006020828403121561150357611502611d7f565b5b6000611511848285016113ae565b91505092915050565b6000602082840312156115305761152f611d7f565b5b600061153e848285016113c3565b91505092915050565b60006020828403121561155d5761155c611d7f565b5b600061156b848285016113d8565b91505092915050565b61157d81611c38565b82525050565b61158c81611c4a565b82525050565b600061159d82611b07565b6115a78185611b12565b93506115b7818560208601611c8d565b6115c081611d84565b840191505092915050565b60006115d8602383611b12565b91506115e382611d95565b604082019050919050565b60006115fb602283611b12565b915061160682611de4565b604082019050919050565b600061161e602283611b12565b915061162982611e33565b604082019050919050565b6000611641601d83611b12565b915061164c82611e82565b602082019050919050565b6000611664602683611b12565b915061166f82611eab565b604082019050919050565b6000611687603b83611b12565b915061169282611efa565b604082019050919050565b60006116aa601583611b12565b91506116b582611f49565b602082019050919050565b60006116cd601383611b12565b91506116d882611f72565b602082019050919050565b60006116f0602183611b12565b91506116fb82611f9b565b604082019050919050565b6000611713602583611b12565b915061171e82611fea565b604082019050919050565b6000611736602483611b12565b915061174182612039565b604082019050919050565b6000611759600f83611b12565b915061176482612088565b602082019050919050565b600061177c601583611b12565b9150611787826120b1565b602082019050919050565b600061179f602583611b12565b91506117aa826120da565b604082019050919050565b60006117c2601683611b12565b91506117cd82612129565b602082019050919050565b60006117e5601f83611b12565b91506117f082612152565b602082019050919050565b61180481611c76565b82525050565b61181381611c80565b82525050565b600060208201905061182e6000830184611574565b92915050565b60006060820190506118496000830186611574565b6118566020830185611574565b61186360408301846117fb565b949350505050565b60006040820190506118806000830185611574565b61188d60208301846117fb565b9392505050565b60006020820190506118a96000830184611583565b92915050565b600060208201905081810360008301526118c98184611592565b905092915050565b600060208201905081810360008301526118ea816115cb565b9050919050565b6000602082019050818103600083015261190a816115ee565b9050919050565b6000602082019050818103600083015261192a81611611565b9050919050565b6000602082019050818103600083015261194a81611634565b9050919050565b6000602082019050818103600083015261196a81611657565b9050919050565b6000602082019050818103600083015261198a8161167a565b9050919050565b600060208201905081810360008301526119aa8161169d565b9050919050565b600060208201905081810360008301526119ca816116c0565b9050919050565b600060208201905081810360008301526119ea816116e3565b9050919050565b60006020820190508181036000830152611a0a81611706565b9050919050565b60006020820190508181036000830152611a2a81611729565b9050919050565b60006020820190508181036000830152611a4a8161174c565b9050919050565b60006020820190508181036000830152611a6a8161176f565b9050919050565b60006020820190508181036000830152611a8a81611792565b9050919050565b60006020820190508181036000830152611aaa816117b5565b9050919050565b60006020820190508181036000830152611aca816117d8565b9050919050565b6000602082019050611ae660008301846117fb565b92915050565b6000602082019050611b01600083018461180a565b92915050565b600081519050919050565b600082825260208201905092915050565b6000611b2e82611c76565b9150611b3983611c76565b9250827fffffffffffffffffffffffffffffffffffffffffffffffffffffffffffffffff03821115611b6e57611b6d611cf2565b5b828201905092915050565b6000611b8482611c76565b9150611b8f83611c76565b925082611b9f57611b9e611d21565b5b828204905092915050565b6000611bb582611c76565b9150611bc083611c76565b9250817fffffffffffffffffffffffffffffffffffffffffffffffffffffffffffffffff0483118215151615611bf957611bf8611cf2565b5b828202905092915050565b6000611c0f82611c76565b9150611c1a83611c76565b925082821015611c2d57611c2c611cf2565b5b828203905092915050565b6000611c4382611c56565b9050919050565b60008115159050919050565b600073ffffffffffffffffffffffffffffffffffffffff82169050919050565b6000819050919050565b600060ff82169050919050565b60005b83811015611cab578082015181840152602081019050611c90565b83811115611cba576000848401525b50505050565b60006002820490506001821680611cd857607f821691505b60208210811415611cec57611ceb611d50565b5b50919050565b7f4e487b7100000000000000000000000000000000000000000000000000000000600052601160045260246000fd5b7f4e487b7100000000000000000000000000000000000000000000000000000000600052601260045260246000fd5b7f4e487b7100000000000000000000000000000000000000000000000000000000600052602260045260246000fd5b600080fd5b6000601f19601f8301169050919050565b7f45524332303a207472616e7366657220746f20746865207a65726f206164647260008201527f6573730000000000000000000000000000000000000000000000000000000000602082015250565b7f45524332303a206275726e20616d6f756e7420657863656564732062616c616e60008201527f6365000000000000000000000000000000000000000000000000000000000000602082015250565b7f45524332303a20617070726f766520746f20746865207a65726f20616464726560008201527f7373000000000000000000000000000000000000000000000000000000000000602082015250565b7f45524332303a20696e73756666696369656e7420616c6c6f77616e6365000000600082015250565b7f45524332303a207472616e7366657220616d6f756e742065786365656473206260008201527f616c616e63650000000000000000000000000000000000000000000000000000602082015250565b7f63617220746f6b656e20707269636520696e637265617365642c20696e73756660008201527f66696369656e742062616c616e636520696e20636f6e74726163740000000000602082015250565b7f796f7520617265206e6f7420746865206f776e65720000000000000000000000600082015250565b7f7472616e7366657246726f6d206661696c656400000000000000000000000000600082015250565b7f45524332303a206275726e2066726f6d20746865207a65726f2061646472657360008201527f7300000000000000000000000000000000000000000000000000000000000000602082015250565b7f45524332303a207472616e736665722066726f6d20746865207a65726f20616460008201527f6472657373000000000000000000000000000000000000000000000000000000602082015250565b7f45524332303a20617070726f76652066726f6d20746865207a65726f2061646460008201527f7265737300000000000000000000000000000000000000000000000000000000602082015250565b7f636865636b207468652070726963650000000000000000000000000000000000600082015250565b7f696e7375666669656369656e742062616c616e63650000000000000000000000600082015250565b7f45524332303a2064656372656173656420616c6c6f77616e63652062656c6f7760008201527f207a65726f000000000000000000000000000000000000000000000000000000602082015250565b7f696e76616c696420746f6b656e20616464726573737300000000000000000000600082015250565b7f45524332303a206d696e7420746f20746865207a65726f206164647265737300600082015250565b61218481611c38565b811461218f57600080fd5b50565b61219b81611c4a565b81146121a657600080fd5b50565b6121b281611c76565b81146121bd57600080fd5b5056fea2646970667358221220b6b3ac257b0e45c2e17040a7f8ee7aea9c5c56014cad38193c94b867ffb56bd264736f6c63430008070033",
  "linkReferences": {},
  "deployedLinkReferences": {}
}